:100000000C9463000C948B000C948B000C944403B0
:100010000C9444030C9444030C948B000C948B00BC
:100020000C948B000C948B000C948B000C948B0024
:100030000C948B000C948B000C948B000C948B0014
:100040000C94FA020C948B000C94C8020C94A2023B
:100050000C948B000C948B000C948B000C948B00F4
:100060000C948B000C948B0000000008000201002F
:100070000003040700000000000000000000000072
:1000800023002600290000000000240027002A0089
:1000900000000000250028002B00040404040404D0
:1000A0000404020202020202030303030303010227
:1000B00004081020408001020408102001020408F6
:1000C000102008047F0611241FBECFEFD8E0DEBF4A
:1000D000CDBF11E0A0E0B1E0ECEAFDE002C0059088
:1000E0000D92A235B107D9F722E0A2E5B1E001C037
:1000F0001D92AC35B207E1F710E0C2E6D0E004C0D3
:100100002197FE010E94C306C136D107C9F70E949C
:10011000F1040C94C9060C940000AF92BF92CF92E8
:10012000DF92EF92FF920F931F93CF93DF936C01B7
:100130007B018B01040F151FEB015E01AE18BF0898
:10014000C017D10759F06991D601ED91FC9101904A
:10015000F081E02DC6010995892B79F7C501DF9162
:10016000CF911F910F91FF90EF90DF90CF90BF90B4
:10017000AF900895FC01538D448D252F30E0842FDE
:1001800090E0821B930B541710F0CF9608950197BF
:100190000895FC01918D828D981761F0A28DAE0FAC
:1001A000BF2FB11D5D968C91928D9F5F9F73928F33
:1001B00090E008958FEF9FEF0895FC01918D828D5F
:1001C000981731F0828DE80FF11D858D90E008952C
:1001D0008FEF9FEF0895FC01918D228D892F90E084
:1001E000805C9F4F821B91098F739927089580EA45
:1001F00091E00E94EB0021E0892B09F420E0822F9E
:10020000089580E090E0892B29F00E94F700811189
:100210000C9400000895FC01A48DA80FB92FB11D06
:10022000A35ABF4F2C91848D90E001968F7399272C
:10023000848FA689B7892C93A089B1898C9183700A
:1002400080648C93938D848D981306C00288F38903
:10025000E02D80818F7D80830895EF92FF920F9330
:100260001F93CF93DF93EC0181E0888F9B8D8C8D62
:1002700098131AC0E889F989808185FF15C09FB756
:10028000F894EE89FF896083E889F9898081837019
:10029000806480839FBF81E090E0DF91CF911F91C8
:1002A0000F91FF90EF900895F62E0B8D10E00F5FE9
:1002B0001F4F0F731127E02E8C8D8E110CC00FB6BF
:1002C00007FCFACFE889F989808185FFF5CFCE0157
:1002D0000E940B01F1CFEB8DEC0FFD2FF11DE35AC6
:1002E000FF4FF0829FB7F8940B8FEA89FB898081DA
:1002F0008062CFCFCF93DF93EC01888D8823B9F054
:10030000AA89BB89E889F9898C9185FD03C0808120
:1003100086FD0DC00FB607FCF7CF8C9185FFF2CF9D
:10032000808185FFEDCFCE010E940B01E9CFDF91E7
:10033000CF9108953FB7F8948091970190919801DB
:10034000A0919901B0919A0126B5A89B05C02F3FB5
:1003500019F00196A11DB11D3FBFBA2FA92F982FEB
:100360008827BC01CD01620F711D811D911D42E0E6
:10037000660F771F881F991F4A95D1F708958F92AE
:100380009F92AF92BF92CF92DF92EF92FF924B017A
:100390005C010E949A016B017C010E949A016C1918
:1003A0007D098E099F09683E734081059105A8F378
:1003B00021E0821A9108A108B10888EEC80E83E0F6
:1003C000D81EE11CF11C81149104A104B10429F789
:1003D000FF90EF90DF90CF90BF90AF909F908F9065
:1003E000089520919D0130919E012817390771F4DD
:1003F00090919B0180919C01981741F0E0919B01A5
:10040000F0E0EE5AFE4F808190E008958FEF9FEF6D
:1004100008950895EF92FF920F931F93CF93DF9368
:10042000DC015C96ED90FC905D97E114F10479F4A9
:1004300081E090E013969C938E93129790E080E079
:10044000DF91CF911F910F91FF90EF9008955196FA
:10045000ED91FC91529750968C915097982F9095D2
:100460000FB75E962C915E97122F127021FD60954A
:10047000F8942081112319F1282B2083E70121977B
:10048000F1F728E0462F50E0308160FF1AC0382B8A
:100490003083E7012197F1F7BA01759567952150EF
:1004A00089F7112381F08081892380830FBF5C96B7
:1004B0008D919C910197F1F781E090E0C1CF2923C4
:1004C000DCCF3923E5CF9081892BEFCF20919D019F
:1004D00030919E012817390771F480919C01209179
:1004E0009B0190E0805C9F4F821B910960E470E06B
:1004F0000E949B06089590E080E0089520919D0160
:1005000030919E0128173907B9F490919B01809191
:100510009C01981789F0E0919B01F0E0EE5AFE4FA4
:10052000808120919B0130E02F5F3F4F2F73332755
:1005300020939B0190E008958FEF9FEF089590E046
:1005400080E008951F920F920FB60F9211242F93FF
:100550003F934F935F936F937F938F939F93AF934B
:10056000BF93EF93FF9380EA91E00E940B01FF910C
:10057000EF91BF91AF919F918F917F916F915F911B
:100580004F913F912F910F900FBE0F901F90189594
:100590001F920F920FB60F9211242F938F939F9358
:1005A000EF93FF93E091B001F091B1018081E09170
:1005B000B601F091B70182FD1BC090818091B90115
:1005C0008F5F8F732091BA01821741F0E091B901DA
:1005D000F0E0E056FE4F958F8093B901FF91EF91C7
:1005E0009F918F912F910F900FBE0F901F90189594
:1005F0008081F4CF1F920F920FB60F9211242F9388
:100600003F938F939F93AF93BF938091930190916A
:100610009401A0919501B09196013091920123E04F
:10062000230F2D3758F50196A11DB11D209392017E
:100630008093930190939401A0939501B0939601B8
:100640008091970190919801A0919901B0919A01A0
:100650000196A11DB11D8093970190939801A093DD
:100660009901B0939A01BF91AF919F918F913F9162
:100670002F910F900FBE0F901F90189526E8230F13
:100680000296A11DB11DD2CF1F920F920FB60F92ED
:1006900011242F933F934F935F936F937F938F9387
:1006A0009F93AF93BF93EF93FF93E0919D01F091E0
:1006B0009E01309749F0A685B7858585968D91FF77
:1006C00014C09C918923A1F4FF91EF91BF91AF9148
:1006D0009F918F917F916F915F914F913F912F915A
:1006E0000F900FBE0F901F9018959C91892361F772
:1006F000A389B4899C918589809589238C93868967
:1007000097890197F1F7608D718DA685B78555851D
:1007100038E020E0CB010197F1F7822F90E095952A
:100720008795282F4C91452309F02068315091F787
:10073000868D81FD209580919C0190E001968F73BC
:10074000992730919B01381799F0A0919C01B0E056
:10075000AE5ABE4F2C9380939C01828D938D01974E
:10076000F1F7A389B4898C919589892B8C93ACCFAF
:10077000868D8160868FF1CF90E0FC01E859FF4FB4
:100780002491FC01E255FF4F3491FC01E656FF4FE6
:10079000E491EE23C9F0222339F0233001F1A8F4CB
:1007A000213019F1223029F1F0E0EE0FFF1FE05760
:1007B000FF4FA591B4918FB7F894EC91611126C0C9
:1007C00030953E233C938FBF08952730A9F0283001
:1007D000C9F0243049F7809180008F7D03C080915B
:1007E00080008F7780938000DFCF84B58F7784BDC2
:1007F000DBCF84B58F7DFBCF8091B0008F77809366
:10080000B000D2CF8091B0008F7DF9CF3E2BDACFF0
:100810000F931F93CF93DF931092A3011092A20125
:1008200088EE93E0A0E0B0E08093A4019093A5014E
:10083000A093A601B093A70124E031E03093A10179
:100840002093A00125EC30E03093AD012093AC0162
:1008500024EC30E03093AF012093AE0120EC30E087
:100860003093B1012093B00121EC30E03093B3011B
:100870002093B20122EC30E03093B5012093B40113
:1008800026EC30E03093B7012093B6011092B90105
:100890001092BA011092BB011092BC01109240025A
:1008A00010923F028093410290934202A093430230
:1008B000B093440286E191E090933E0280933D0222
:1008C0001092540210925302109256021092550246
:1008D000109258021092570210925A021092590226
:1008E00060915B026E7F6D7F60935B0266956170C5
:1008F00081E068278BE00E94BC0349EB50E0FA01DD
:10090000649185EA90E0FC012491222399F030E083
:10091000220F331FF901EA57FF4FA591B491F90156
:10092000E057FF4F259134912FB7F8943C91632BFA
:100930006C932FBFFA01449140934D02FC018491C6
:10094000E82FF0E0EE0FFF1FE057FF4F85919491E5
:1009500090934F0280934E0208EB10E0F80124912F
:10096000C4EAD0E0FE0184918823C9F090E0880FAA
:10097000991FFC01EA57FF4FA591B491FC01E05784
:10098000FF4F459154913FB7F8949C91822F8095E9
:1009900098239C93FA019081892380833FBF8091A3
:1009A0005B0281FD04C061E08AE00E94BC038AE032
:1009B00080934902F801049100934A02FE01C49118
:1009C000EC2FF0E0EE0FFF1FE458FF4F859194915C
:1009D00090934C0280934B02DF91CF911F910F9126
:1009E0000895CF93DF93CDB7DEB765970FB6F89430
:1009F000DEBF0FBECDBF789484B5826084BD84B560
:100A0000816084BD85B5826085BD85B5816085BD09
:100A100080916E00816080936E00109281008091C1
:100A20008100826080938100809181008160809349
:100A30008100809180008160809380008091B1006E
:100A400084608093B1008091B00081608093B00099
:100A500080917A00846080937A0080917A0082602D
:100A600080937A0080917A00816080937A008091EF
:100A70007A00806880937A001092C100E091B00102
:100A8000F091B10182E08083E091AC01F091AD0181
:100A90001082E091AE01F091AF0180E1808310926D
:100AA000B801E091B401F091B50186E08083E09156
:100AB000B201F091B301808180618083E091B20145
:100AC000F091B301808188608083E091B201F09160
:100AD000B301808180688083E091B201F091B3011D
:100AE00080818F7D8083109258021092570210925D
:100AF000560210925502109254021092530282E450
:100B000090E090935A028093590290914902963155
:100B100008F047C02FE030E0309354022093530296
:100B200020E430E0309356022093550227E230E073
:100B300030935802209357022091680084E0983047
:100B400048F031E09E3008F430E081E001C0880FC9
:100B50003A95EAF7822B809368002DE630E09830D2
:100B600050F02BE630E09E3030F02CE630E096314D
:100B700010F030E020E03093510220935002292FF2
:100B800030E0983008F097C081E001C0880F9A9556
:100B9000EAF7809352028091590290915A0201978C
:100BA000F1F78091570290915802892B49F1E09119
:100BB0009D01F0919E0182E0ED33F80709F1309735
:100BC00039F0A389B4899C918589809589238C9378
:100BD00080915B028E7F80935B0210929C01109249
:100BE0009B018DE392E090939E0180939D01E091A3
:100BF0005002F0915102808190915202892B8083A2
:100C00004AE050E064E271E080EA91E00E948D00E9
:100C100080EA91E00E94EB0018161906CCF780EAF2
:100C200091E00E94C90080939F0149E050E06FE28B
:100C300071E080EA91E00E948D0060919F0180EA5E
:100C400091E00E942D0142E050E069E371E080EA0A
:100C500091E00E948D0068EC70E080E090E00E94DE
:100C6000BF0180E0E82E80E0F82E85E1ECE3F1E0C2
:100C7000DE01119601900D928A95E1F78E010F5FCA
:100C80001F4FF80161918F01662311F18DE392E00E
:100C90000E940A026AE070E080E090E00E94BF01DA
:100CA0008DE392E00E946602892B59F38DE392E076
:100CB0000E947E02F5CF9E3040F42850310981E039
:100CC00001C0880F2A95EAF764CF2E503109F7CF7B
:100CD00064EF71E080E090E00E94BF016AE08DE384
:100CE00092E00E940A02E114F10409F4BECF0E94CE
:100CF000F700882309F4B9CF0E940000B6CF86E13F
:100D000091E090933E0280933D0280919D019091ED
:100D10009E018D53924071F4E0915002F091510286
:100D200090818091520280958923808310929E0148
:100D300010929D01089597FB072E16F4009407D09A
:100D400077FD09D00E94AF0607FC05D03EF49095D0
:100D500081959F4F0895709561957F4F0895AA1BC7
:100D6000BB1B51E107C0AA1FBB1FA617B70710F096
:100D7000A61BB70B881F991F5A95A9F780959095C8
:100D8000BC01CD010895EE0FFF1F0590F491E02DF9
:100D9000099410E0C2E6D0E004C0FE010E94C30640
:0C0DA0002196C336D107C9F7F894FFCFA5
:100DAC00000000002D018D00BA007A01EB00C90093
:100DBC00DD00000000000A028D009F02090266029D
:100DCC007E02F101456E746572204944203A005947
:100DDC006F75722049443A20000D0A00436F6D7004
:100DEC007574657220456E67696E656572696E67AC
:020DFC000000F5
:00000001FF
